:020000040800F2
:10000000C00A00203502000861200008611E0008B7
:10001000FD1E0008F71A00089933000800000000D0
:100020000000000000000000000000006D27000834
:10003000F91A00080000000085260008372800088B
:100040004F0200084F0200084F0200084F0200084C
:100050004F0200084F0200084F0200084F0200083C
:100060004F0200084F0200084F0200084F0200082C
:100070004F0200084F0200084F0200084F0200081C
:100080004F0200084F0200084F0200084F0200080C
:100090004F0200084F0200084F0200084F020008FC
:1000A0004F0200084F0200084F0200084F020008EC
:1000B0004F0200086D2A00084F0200084F02000896
:1000C0004F0200084F0200084F0200084F020008CC
:1000D0004F0200084F020008B53100080132000845
:1000E0004F0200084F0200084F02000800F002F81B
:1000F00000F090F80AA090E8000C82448344AAF132
:100100000107DA4501D100F085F8AFF2090EBAE82F
:100110000F0013F0010F18BFFB1A43F0010318473B
:100120004C4D00006C4D0000103A24BF78C878C1D7
:10013000FAD8520724BF30C830C144BF04680C60ED
:10014000704700000023002400250026103A28BF35
:1001500078C1FBD8520728BF30C148BF0B60704739
:100160006E2900F07B81702900F0BD82662903F0C2
:100170000F85652903F00C85672903F0098561293E
:1001800003F0088503681B0A28BF41F08001692934
:1001900000F02881642900F02581752900F0228172
:1001A0006F2900F04A82782900F08982E92900F05D
:1001B000E581E42900F0E281F52900F0DF81EF29F3
:1001C00000F04782F82900F088820368DB0928BF25
:1001D00041F08001632900F08B87732900F090873C
:1001E000E32900F09B87F32900F0A08700207047E7
:1001F0001FB500F0F1FF04000020002103F0B8FA61
:10020000401C60600020002103F09CFAE0601FBDEC
:1002100010B510BD00F0B2FF1146FFF7E9FF03F083
:100220005FF901F08FF803B4FFF7F2FF03BC01F0B0
:1002300093F800000948804709480047FEE7FEE7B9
:10024000FEE7FEE7FEE7FEE7FEE7FEE7FEE7FEE786
:1002500004480549054A064B704700003928000844
:10026000ED000008C0040020C00A0020C0060020E5
:10027000C00600201CB50C46064B7B446946009026
:10028000204600F004F904460020694600F012F907
:1002900020461CBD370200004FF0013C50F8042BF3
:1002A00051F8043B9A4221D1A2EB0C03934313EA89
:1002B000CC1317D150F8042B51F8043B9A4215D1B6
:1002C000A2EB0C03934313EACC130BD150F8042B8D
:1002D00051F8043B9A4209D1A2EB0C03934313EA71
:1002E000CC13DBD04FF00000704700BFD01A01BA2A
:1002F000B1FA81F101F0180122FA01F0CB40C1F10D
:100300002001DBB2C0B2C01A2CFA01F3D11A91431A
:1003100011EAC311E6D1704770477047704770B556
:10032000044685690068C10601D5302600E0202614
:10033000C00707D070BDD4E9012130469047206A3C
:10034000401C20626D1EF6D570BD70B504468569EF
:100350000078C00707D170BDD4E901212020904763
:10036000206A401C20626D1EF6D570BD09684A05E2
:1003700001D540B27047C905FCD500B27047096885
:100380004A0501D5C0B27047C905FCD580B2704797
:1003900070B50C460546012A05D02878800600D5A0
:1003A000EA69002302E0012305E05B1C934202D2CC
:1003B000E05C0028F9D1A869E618C01AA861286A8B
:1003C000184428622846FFF7AAFF04E0D5E9012176
:1003D00014F8010B9047B442F8D32846FFF7B5FF55
:1003E00070BD00002DE9F041064600241068752913
:1003F000314616A510D0FFF7B9FF002802DA4042B7
:1004000013A507E031688A0701D512A502E0490764
:1004100004D511A5012401E0FFF7B1FF00210A2254
:1004200006F1240709E0B0FBF2FCB0FBF2F302FB9B
:100430001C00303078541846491C0028F3D123465C
:100440002A463046BDE8F04100F061BA00000000E5
:100450002D0000002B000000200000001168026841
:10046000006A530501D508700AE0D30501D508805C
:1004700006E0130603D5C217C1E9000200E00860D8
:100480000120704701694A1C02610878704700B575
:100490008FB0CDE901310021059105497944CDE9BD
:1004A00003101146684600F029F90FB000BD0000A6
:1004B000E5FFFFFF0A6802F8010B0A6070470000C1
:1004C0002DE9FF5F15468A460446DFF8AC80F84404
:1004D0000027D8E900103E46CDE9001010E03AF8B8
:1004E00016106A4602A800F025FE411C07D02178AC
:1004F000890603D5E269391891420DD80744761C64
:100500002078800602D5E069B84205DDAE42E6DB20
:100510003AF816000028E2D1A069C01BA06120466D
:10052000FFF7FDFED8E90010CDE90010002017E02C
:100530003AF818106A4602A800F0FCFDB0F1FF3F3F
:1005400081460BD000250DF1080B05E0D4E901210F
:100550001BF8050090476D1C4D45F7D308F10100CD
:10056000B0428046E4DB206A384420622046FFF730
:10057000ECFEBDE8FF9F00009E4800002DE9F04121
:100580008046D21D22F007020025D2E90002F5299B
:1005900015A614D0011E72F1000106DA0023D0EB7B
:1005A000030063EB020211A608E0D8F800108B07E5
:1005B00001D50FA602E0490701D50EA60125114677
:1005C000002408F1240704E000F05CF930323A55C9
:1005D000641C50EA0102F7D12B46324621464046C0
:1005E000BDE8F04100F093B9000000002D000000CC
:1005F0002B0000002000000030B4002100F1240492
:1006000008E002F00705D208303542EA4372DB0801
:100610006554491C52EA0305F3D10468002310A273
:10062000250707D5A40600D421B1C46901230DA272
:10063000641EC46130BC00F06AB910B5044621469E
:100640001068FFF79CFE02462046BDE810400023DC
:10065000D2E7D21D22F00701D1E90023CCE7000048
:100660000000000030000000F0B40D4601880905CC
:1006700002D5214C7C4402E01F4C7C440E34002106
:1006800000F1240608E002F00F071209E75D42EAD4
:1006900003721B097754491C52EA0307F3D102780D
:1006A0000023120704D5702D06D009B1022311349E
:1006B0002246F0BC00F02BB901231034F8E770B5E6
:1006C00004460D4621461068FFF759FE02462946AA
:1006D0002046BDE870400023C6E7D21D22F0070384
:1006E000D3E90023C0E70368126843F020030360E6
:1006F0000823C3610023B7E7004700002DE9F05F3E
:10070000894604464FF0000ADFF874B1FB44C0F894
:1007100020A02046E1688847002874D0252806D00C
:10072000D4E901219047206A401C2062F1E70026AD
:100730005F462046E16888472028054607DB312DC3
:1007400005D2781910F8200C08B10643F1E7B0077C
:1007500001D526F00406C4F81CA00027C4F818A090
:100760002A2D09D0284602F02CFE38B304EB870866
:10077000303DC8F8185019E059F8041B204604EB26
:1007800087029161E1688847012F054618D1E06929
:10079000002820DA26F020061DE0D8F8180000EB2B
:1007A000800005EB40003038C8F818002046E168AA
:1007B0008847054602F005FE0028EED1012F0AD039
:1007C0002E2D08D12046E16888477F1C0546022F60
:1007D00046F02006C4DBA069002803DA404246F058
:1007E0000106A061F00701D026F010066C2D0BD099
:1007F000682D09D04C2D39D06A2D35D0742D35D0C7
:100800007A2D33D016E038E0E1682F46204688473D
:10081000B842054609D16C2F26D04FF48060E168BC
:10082000064320468847054604E06C2F1AD04FF453
:10083000807006430DB3A5F14100192802D8203578
:1008400046F400664A462946204626604E46FFF793
:1008500087FC80B101280BD0F61D26F0070000F1BF
:10086000080956E74020E4E78020D8E70020D6E7D3
:1008700006F104094DE7284652E7206ABDE8F09FDB
:100880009046000030B5B0F10A024FEA900E71F1C7
:1008900000034EEA817EB0EB0E0061EB91014FEA5E
:1008A000101E4EEA017E10EB0E0041EB11114FEAD3
:1008B000102E4EEA016E10EB0E0041EB11214FEAB3
:1008C000104E4EEA014E10EB0E0041EB1141401864
:1008D00041F100014FEAD00040EA41704FEAD101F6
:1008E00010EB80054FEA810444EA907444EB010464
:1008F0006D1944EB0404521BA3414FF0000348BFA1
:100900000A3200D530BD401C41F1000130BD2DE957
:10091000F0470D4699469246044600F124080168C6
:10092000880604D5E06921F01001216000E0012073
:10093000A84201DD471B00E00027A1697A1902EBFC
:100940000900081AA0612078C00602D42046FFF7EB
:10095000E6FC002608E0D4E901211AF806009047D9
:10096000206A401C761C20624E45F4DB2078C006CD
:100970000AD52046FFF7D3FC06E0D4E90121302058
:100980009047206A401C2062381EA7F10107F4DC62
:1009900007E0D4E9012118F805009047206A401CBF
:1009A0002062281EA5F10105F3DC2046FFF7CDFCEF
:1009B0002078000602D50220BDE8F0870120FBE781
:1009C00070472DE9FF4F0C461E464FF0FF378BB0A6
:1009D000D2E90001DDF860800A908A46C1F30A5529
:1009E00005B93D46002108464FF00000BAF1000F5E
:1009F00000F4400005DA00EB80004FF4400101EA0A
:100A000050004FEA9059B9F1010F00DDB9460A983C
:100A100050EA4A000ED044F61050A5F2FF35454387
:100A20002F14B8F1000F1ED07542291E1EDDC9F12A
:100A300000021CE0B8F1010F4FF0000001D030219E
:100A400003E0F24305E02154401CB042FBDB30469A
:100A50000022002121540B99C1F80880C1E900202F
:100A60000FB0BDE8F08FBD1B6D1CDEE74A4600DA13
:100A7000694206A800F0F4FB06AB93E8070003AB5D
:100A800083E8070050460A9900F06DFC8DE80700E6
:100A9000A0F500501F3800900398002D0ADD42F2A7
:100AA0001F014A460844002303A90390684600F04A
:100AB000D6FE09E0A0F500504A461F38002303A9DE
:100AC0000390684600F0E0FE8DE807000004000C8B
:100AD00003D04FF0FF30410800E01046B8F1000F9E
:100AE00003D00022009215461EE0751E05D4FFF7C4
:100AF000C9FE303262556D1EF9D5B3460122084356
:100B000002D000227F1C04E02078302801D100228E
:100B10007F1E002A099784D01DE0112D07DAFFF708
:100B2000B1FE303262556D1C50EA0102F5D1084326
:100B300002D00098C8B10EE00021681E05E0235CD9
:100B4000625C63542254401E491C8142F7DBAB4671
:100B5000A81B401E0990002004F80B000B98099A6E
:100B6000C0F80880C0E9002B7AE711264FF0000892
:100B700057E72DE9F04F88460446D21D22F00701C1
:100B800091B0D1E90001CDE90A0102F006FC02466C
:100B90000B98C00F01D02D2007E02068810701D5F8
:100BA0002B2002E0202101EAC000032A099001D095
:100BB000072A05DB03464146204600F011FB0BE106
:100BC0002078800601D5E06900E00620B8F1650FC5
:100BD000814606D0B8F1660F18D0B8F1670F70D112
:100BE00031E00020B9F1110F009001DB112301E089
:100BF00009F101030AAA01A90CA8FFF7E2FEDDE949
:100C00000C70002609F10105834647E001204B46A0
:100C100000904FF000470AAA01A90CA8FFF7D1FEE7
:100C2000DDE90DB00C995D46002610B909F101000F
:100C30000D18B9EB050003D4C0F1FF3609F1010529
:100C4000A5EB09002BE0B9F1010F01DA4FF0010922
:100C50000020B9F1110F0090484601DD112300E09A
:100C600003460AAA01A90CA8FFF7ABFEDDE90C7048
:100C70004D4600268346207800070AD4AB4500DAAB
:100C80005D4601A8012D04DD411911F8011C302930
:100C900007D04F4502DA17F1040F04DA012082462B
:100CA0000FE06D1EEEE7002F02DCED1B3E4403E07B
:100CB000781CA84200DD7D1CB81B00F1010A4FF032
:100CC00000472078000703D4AA4501DB4FF0FF3A24
:100CD0000021B7F1004F0DF143088DF8431024D0E7
:100CE00002202B23002F01DA7F422D230A21021E2E
:100CF000A0F1010000DC5FB197FBF1FC97FBF1F282
:100D000001FB1C7C17460CF1300C08F801CDEEE716
:100D1000A8F1010003702188090501D5452100E0F3
:100D20006521A0F1010800F8011C09980FA9A1EBA9
:100D30000807FF1D00B10120411901EBEA70A1690C
:100D40003844081A401EA0612078C00602D420460C
:100D5000FFF7E5FA099828B1D4E901219047206A04
:100D6000401C20622078C00622D52046FFF7D7FA23
:100D70001EE0002E04DBB34502DD01A8805D00E02B
:100D80003020D4E901219047206A401C2062761C63
:100D9000AAF101005FEA000A0AD100F01DFAC0685A
:100DA0000168405CD4E901219047206A401C206220
:100DB000281EA5F10105DCDC07E0D4E9012118F8C3
:100DC000010B9047206A401C2062381EA7F10107E2
:100DD000F3DC2046FFF7B9FA032011B041E600002A
:100DE0002DE9F04F04460D46D21D22F0070089B0D0
:100DF000D0E900974846394602F0CFFA0246F80F8C
:100E000001D02D2307E02068810701D52B2302E0C4
:100E1000202101EAC0038DF820300BB1012000E051
:100E20000020032A824601D0072A04DB29462046F7
:100E300000F0D6F93FE12078800601D40D2500E0CE
:100E4000E569C7F30A560D2D49DA00214FEA175B11
:100E500008464FF00000002F00F4400007DA00EBD6
:100E600080004FF4400100EBD07001EA6000811572
:100E7000012901DD4FF0FF3100224FEA850CBCF162
:100E8000180F06D31346ACF118004FF08052C24041
:100E900003E04FF4801323FA0CF30CF10C0CBCF1BB
:100EA000200F04D3ACF1200C09FA0CF001E007FA92
:100EB0000CF000294FF0004801DD18B90FE00ED109
:100EC00040450CD319EB02095F4121B9404502D1DD
:100ED0009F4329EA0209BBEB175F00D0761C2088EC
:100EE000000502D57B48784402E07A4878441938F6
:100EF00008AA302302F80A30037C0AF10101002E0F
:100F00000AF1020A53546A4602DC4FF0300101E054
:100F10004FF031014FF001088DF8001002D0A6F219
:100F2000FF3603E059EA470100D06B4E002D02DC8A
:100F30002178090704D54FF002082E218DF8011001
:100F4000C44600210BE0C7F303433F01C35C491CC7
:100F50006D1E02F80830052908F1010801DA002D9C
:100F6000F1DC00210CE000EB1973491C1B786D1EAD
:100F7000082902F808304FEA091908F1010801DAD6
:100F8000002DF0DC21688B0602D516E0A8F10108DF
:100F9000E04505DD02EB080313F8013C302BF5D0EA
:100FA000B8F1000F09DD02EB080313F8013C2E2B0A
:100FB00003D1090701D4A8F10108002D05DD3E2168
:100FC00002F808106D1E08F10108407C002E02F89E
:100FD000080008F1010804DA2D20764202F8080022
:100FE00002E02B2002F808000A214FF47A708642B2
:100FF00008F101080BDB96FBF0F3303302F8083000
:1010000096FBF0F308F1010800FB136601E0642E83
:101010000CDB642096FBF0F3303302F8083096FBCB
:10102000F0F308F1010800FB136601E00A2E06DB6D
:1010300096FBF1F0303002F8080008F1010896FB49
:10104000F1F001FB1060303002F80800A16908F1EE
:10105000010808EB050202EB0A00081AA0612078DB
:10106000C00602D42046FFF75AF9216A08AE01EB08
:101070000A00206204E0D4E9012116F8010B904730
:10108000BAF1010AF7D22078C00602D52046FFF750
:1010900046F96E4609E016F8010B3E280FD0D4E958
:1010A00001219047206A401C2062B8F10108F2D269
:1010B0002046FFF74AF909B00320BDE8F08F206A07
:1010C0002844206203E0D4E90121302090476D1EBE
:1010D000EBD3F8E7DA3E000002FCFFFF10B54369EE
:1010E00013B1AFF3008001E0FFF752F9012010BD0A
:1010F000127800F124010A7000224A700122EDE703
:1011000011684FF0FF32E9E710B5436913B1AFF34F
:10111000008001E0FFF7D4F9012010BD128800F132
:10112000240182840022C2840122EDE711684FF07D
:10113000FF32E9E770B516460C46054600F044F864
:10114000036893F80101012806D0FF2C0FD8185D21
:1011500068B101202C7070BDD3F8070132462146DA
:1011600003F2071303442846BDE8704018474FF0C8
:10117000FF3070BD004870475C0400207546FFF7E3
:10118000F9FFAE4605006946534620F00700854644
:1011900018B020B5FFF75CF8BDE820404FF000061E
:1011A0004FF000074FF000084FF0000B21F007014F
:1011B000AC46ACE8C009ACE8C009ACE8C009ACE892
:1011C000C0098D467047000010B500F005F8001DFD
:1011D00010BD00BF9D250000004870477C04002022
:1011E0002DE9F0411F46044603260168072A01F451
:1011F000006004DB08B116A505E016A503E008B100
:1012000015A500E015A521F010002060A069C01E02
:10121000A0610FB1401EA0612046FFF780F84FB1DA
:10122000D4E9012138469047206A401C2062C01C46
:10123000206206E0206AFAE7D4E9012115F8010BE3
:101240009047761EF8D22046FFF77FF8BDE8F08180
:101250004E414E006E616E00494E4600696E66005A
:101260002DE9F047814616468AB0354878440DC8C6
:101270008DE80D0032487844801C03AC0DC884E82A
:101280000D0041F69B300844372190FBF1F290FBB2
:10129000F1F5A5F1800501FB12041B3C02D5644267
:1012A000012000E00020DFF898A080460027FA44E3
:1012B000AAF1BE0A0EE0E0070AD03246684607EB04
:1012C000470101230AEB810100F0DEFA8DE80700F7
:1012D00064107F1C002CEED1194F7F44AE3F19E003
:1012E000E80715D007EB04100DF1180A90E80E007E
:1012F0008AE80E00C068F04201D198190890324681
:10130000012306A903A800F0BFFA03AB83E8070096
:101310006D10641C002DE3D14FF001033246694685
:10132000B8F1000F03A802D000F099FA01E000F034
:10133000ABFAC9E90001C9F808200AB0BDE8F08796
:10134000E43B000010B50446AFF300802046BDE842
:101350001040FEF768BF000001491820ABBEFEE751
:101360002600020070475FEA400C08BF91F0000FB2
:101370004FEA8C234FEAC12243EA51514FEA1C50F5
:1013800018BF00F5F0404FEA300018BF41F00041AF
:101390005FEA6C5C00F02980BCF1FF3F08BF40F0C1
:1013A00080407047130C06BF12044FF0100C4FF032
:1013B000000C130E04BF12020CF1080C130F04BF33
:1013C00012010CF1040C930F04BF92000CF1020CFB
:1013D000D30F04BF52000CF1010C11464FF0000274
:1013E000A0F11F00A0EB0C00704711F0004F08BFE8
:1013F000704731F000413FF4D5AF0B0C06BF090434
:101400004FF0100C4FF0000C0B0E04BF09020CF152
:10141000080C0B0F04BF09010CF1040C8B0F04BF67
:1014200089000CF1020CCB0F04BF49000CF1010C38
:10143000CCF12003A0EB0C0022FA03F302FA0CF229
:1014400041EA030100F10100704720F07F4C80EA7F
:10145000030023F07F47ACEB070303F57C5300F058
:10146000004003F1FF032DE980494FEA154B09B411
:101470004FEA144325EA0B4E24EA03480FF20426F0
:1014800006EB132749083E785FEA320203FB066742
:10149000C7F5000707FB06F64FEA54374FEAD64672
:1014A00006F1020607FB066CCCF1005C4FEA1C4714
:1014B0002CEA074C07FB06F40CFB06F504EB15467B
:1014C0004FEA961634BF00204FF000404FEAD13764
:1014D00006FB07FC4FEA1C4C0CFB0BF7D21B03FB73
:1014E0000CF761EB07010CFB0EF7B0EB074072EB5A
:1014F00017420CFB08F734BFA2EB0742B2EB0742DE
:1015000061EB17414FEA0C444FEA910706FB07FCD9
:101510004FEA1C4C0CFB0BF7B0EBC74072EB573299
:1015200003FB0CF734BFA2EBC742B2EBC74261EB3F
:1015300057310CFB0EF7B0EBC70072EB57720CFB88
:1015400008F734BFA2EBC702B2EBC70261EB5771D9
:10155000039F4FEA816141EA921104EBCC044FEA08
:10156000D1374FEA826206FB07FC42EA90124FEA4B
:1015700080604FEA1C4C0CFB0BF7D21B03FB0CF7F3
:1015800061EB07010CFB0EF7B0EB074072EB174263
:101590000CFB08F734BFA2EB0742B2EB074261EB4A
:1015A00017414FEA8C554FEA910704EB9C2406FB48
:1015B00007FC4FEA1C4C0CFB0BF7B0EBC74072EB7F
:1015C000573203FB0CF734BFA2EBC742B2EBC74262
:1015D00061EB57310CFB0EF7B0EBC70072EB5772A3
:1015E0000CFB08F734BFA2EBC702B2EBC70261EBFA
:1015F000577115EB4C254FEA816141EA92114FEA90
:1016000082624FEAD13742EA901206FB07FC44F1AE
:1016100000044FEA80604FEA1C4C0CFB0BF7D21B16
:1016200003FB0CF761EB07010CFB0EF7B0EB074077
:1016300072EB17420CFB08F734BFA2EB0742B2EB88
:10164000074261EB174115EB1C154FEA813141EA66
:1016500092414FEA823242EA90424FEA80304FEAAA
:101660000C7644F1000448EA03434EEA0B484FF07D
:10167000000EB2EB080C71EB030724BF624639463B
:101680004EEB0E0E4FF0000B0018524149414BEB50
:101690000B0BB2EB080C71EB03077BF1000B24BFC3
:1016A000624639464EEB0E0E4FF0000B00185241C9
:1016B00049414BEB0B0BB2EB080C71EB03077BF1D1
:1016C000000B24BF624639464EEB0E0E51EA02076C
:1016D00018BF46F0010616EB0E7655F1000254F1E4
:1016E000000103D5BDE88901BDE80088BDE8890196
:1016F000BDE80048B619524141EB0101A3F10103D5
:10170000704780807F7E7D7C7B7A7978777676756E
:101710007473727171706F6E6E6D6C6C6B6A6A69E6
:101720006868676666656464636362616160605F80
:101730005F5E5E5D5D5C5C5B5B5A5A5959585857F9
:101740005756565555555454535352525251515061
:1017500050504F4F4F4E4E4D4D4D4C4C4C4B4B4BB4
:101760004A4A4A49494948484847474747464646FA
:101770004545454444444443434343424242424135
:101780004141002B9C4630D477002BD01CB54FEA4A
:10179000370703B44FF010004FF01001BAF1000FFB
:1017A00006D0BCF1000FDCBF40F0080040F008019B
:1017B0004FF000000FBCBDE810400BF1010BBBF176
:1017C000010F08BF5FEA170722BF12F1010211F1F2
:1017D00001014FF0004143F1000300F0004043EAF3
:1017E00000007047F9D35708D0E746EA064613F1E0
:1017F000400F4FEA16461FDD13F1200FDFBF1643DF
:101800000A46002120335B42BED0C3F1200746EADE
:10181000064602FA07F74FEA164646EA0706C3F1FC
:10182000200722FA03F201FA07F721FA03F14FF039
:10183000000342EA0702A7E746EA020646EA06462E
:101840004FEA164646EA0106BCBF46EA0646360C93
:101850004FF000034FF000024FF0000194E72DE934
:10186000804C9A46934670B491E8380007C831EA34
:10187000400C48BF34EA430C03D5FFF7E6FDFFF701
:1018800080FFF0BCBDE8008C2DE9804C9A46934661
:1018900070B491E8380007C810F0804F08BF13F00B
:1018A000804F03D100F005F8FFF76BFFF0BCBDE8F7
:1018B000008C20F07F4780EA030023F07F4C07EB89
:1018C0000C03A3F57C5300F00040A3F1FE0392F05B
:1018D000000F00F0B38095F0000F00F077802DE945
:1018E00001494FEA11404FEA144621EA004800FB43
:1018F00006FC24EA064708FB06F607FB08F800FB8F
:1019000007F718EB06484CEB164C4FEA124B18EB56
:1019100007484FEA15464CEB174022EA0B4E0BFBEB
:1019200006FC25EA06470EFB06F607FB0EFE0BFB40
:1019300007F71EEB064E4CEB164C4FF000061EEB65
:10194000074E4CEB174B18EB0B0840F1000018EB5F
:101950000E0B58EB000840F100008F1A4FF0000109
:101960003CBFC943661B14BFB5EB040C00213CBF50
:10197000C943F61B4FEA17444EEA8E0E27EA044588
:101980004FEA1C4704FB07622CEA074C05FB07F7EC
:101990000CFB05F604FB0CFC16EB074642EB17426A
:1019A00016EB0C4642EB1C421BEB060658EB020200
:1019B000414146EA9E0601D5BDE80189B61952416A
:1019C00041EB0101A3F10103BDE801894FEA144590
:1019D0004FEA114724EA054621EA074C05FB07F4C4
:1019E00006FB07F70CFB06F105FB0CFC11EB0741AE
:1019F00044EB17444FEA124711EB0C4144EB1C44F3
:101A000022EA074C05FB07F206FB07F70CFB06F67C
:101A100005FB0CFC16EB074642EB174216EB0C4697
:101A200042EB1C456A1854F1000148BF7047B619D3
:101A3000524141EB0101A3F10103704795F0000F02
:101A400037D04FEA11424FEA144721EA024624EA0E
:101A5000074C02FB07F106FB07F70CFB06F402FB41
:101A60000CFC14EB074441EB17414FEA154714EB0C
:101A70000C4441EB1C4125EA074C02FB07F506FB31
:101A800007F70CFB06F602FB0CFC16EB074645EBD2
:101A9000174516EB0C4645EB1C42121951F100019B
:101AA00048BF7047B619524141EB0101A3F1010350
:101AB00070474FEA14454FEA114724EA054621EAE8
:101AC000074C05FB07F106FB07F70CFB06F24FF08E
:101AD000000605FB0CFC12EB074241EB174112EB31
:101AE0000C4251EB1C4148BF7047921841EB010179
:101AF000A3F101037047FEE77047000070B50228AC
:101B000004D004280DD00024204670BD4FF080453D
:101B1000284601F00AF904B20021284601F0F9F93B
:101B2000F2E7054D284601F000F904B200212846ED
:101B300001F0EFF9E8E700000008004070B5054645
:101B4000B1F5000F01DA002070BD074801F05EFE1C
:101B50000446284601F038FF044901F057FE2146AB
:101B6000BDE8704001F048BF00007042004084446E
:101B700030B587B00121052000F086FD01210C2041
:101B800000F090FD48208DF81B0003208DF81A000E
:101B9000ADF8180006A9274800F07EF8C020ADF87F
:101BA000180006A9244800F077F80020ADF80C00D2
:101BB000ADF80E004FF6FF71ADF81010ADF8120041
:101BC0008DF814004FF0804403A9204601F0CCF9B1
:101BD0001A4D03A9284601F0C7F900231A4603212C
:101BE000204601F089F802231A460321284601F015
:101BF00083F8684601F0EEF80A21ADF8081069464E
:101C0000204601F0A1F86946284601F09DF8002120
:101C1000204601F07EF90021284601F07AF90121E1
:101C2000204601F04FF80121284601F04BF807B09B
:101C300030BD000000080140000C014000080040D9
:101C40002DE9F04106460F460220FFF757FF0446F4
:101C50000420FFF753FF05460D4A1068204410602A
:101C600050682844506010685168431803EBD370E3
:101C700040109060DFF81C8020464146FFF75EFF71
:101C8000306041462846FFF759FF3860BDE8F081D3
:101C9000140000200AD7233C2DE9F0410022CC7823
:101CA00004F00F03E40601D58C7823430C784FF041
:101CB0000F0714F0FF0F4FF0010C1CD005680CFA51
:101CC00002F40E882640A64211D1960007FA06F8C3
:101CD00025EA080503FA06F848EA0505CE78282E15
:101CE00002D0482E02D002E0446100E00461521CA0
:101CF000082AE4D305600A88FF2A1ED94568002215
:101D000002F108060CFA06F40E882640A64210D10D
:101D1000960007FA06F825EA080503FA06F848EAE5
:101D20000505CE78282E00D14461CE78482E00D10A
:101D30000461521C082AE3D34560BDE8F08100002D
:101D4000F0B5154C002801DAE36900E06368C0F3E0
:101D50000346420D120185B2C0F301579540032F8F
:101D600007D0C2020CD50322B240934343F0706205
:101D700009E023F07062636823F07063636002E03F
:101D8000AB4343F0706201B12A43002801DAE261FB
:101D9000F0BD6260F0BD000000000140024600207E
:101DA00092680A4200D0012070474161704701618A
:101DB0007047002A01D001617047416170470000FF
:101DC0000A281AD2DFE800F00507090B0D0F1113DE
:101DD00015170BA070470CA070470DA070470FA0FF
:101DE000704711A0704712A0704713A0704714A04D
:101DF000704715A0704716A0704717A070470000E5
:101E0000576169744B65790057616974434D4400AB
:101E1000547261636B696E670000000043726F73F8
:101E200073696E6700000000526F756768000000FC
:101E3000536C6F706500000049736C616E64000044
:101E40005475726E520000005475726E4C000000A2
:101E500053746F7000000000556E6B6E6F776E00EC
:101E6000FEE7000008B501210C2000F01BFC482013
:101E70008DF803002020ADF8000069460548FFF703
:101E80000BFF1020ADF8000069460348FFF704FF80
:101E900008BD0000000C01400008014070B5202181
:101EA0001248FFF77BFF064610211148FFF776FF27
:101EB000104B0A24104A00251EB1157058B15570F8
:101EC00070BD1178491CC9B211700329F6D30121E4
:101ED00019701470F2E75078401CC0B2507003289B
:101EE000EED302201870547070BD0000000C014049
:101EF000000801404800002038000020FEE70000F4
:101F000030B589B0012140F60D0000F0CBFB4FF455
:101F10007040ADF8200010208DF8230002208DF8CD
:101F2000220008A92148FFF7B7FE4FF41060ADF872
:101F3000200018208DF8230003208DF8220008A926
:101F40001B48FFF7A9FE4720ADF814000024ADF8A8
:101F500016406320ADF81800ADF81A408DF81C400B
:101F6000144D05A9284600F0FFFF01A800F0C2FFAC
:101F70006021ADF804100121ADF80610ADF80A405B
:101F8000ADF80C4001A9284600F03CFF01A9284605
:101F900000F07CFF0121284600F094FE0121284634
:101FA00000F09CFE00F03EFC09B030BD000C01408A
:101FB00000080140002C014070B504464FF4004178
:101FC0004E101048002C07DD0546FFF7F0FE3146A5
:101FD0002846FFF7EAFE0CE007DA0546FFF7E5FEC4
:101FE00031462846FFF7E3FE03E04FF44041FFF798
:101FF000DCFE002C00DA6442A1B2BDE87040024869
:1020000000F082BF000C0140002C014070B5044676
:102010004FF480514E001048002C07DD0546FFF7B5
:10202000C6FE31462846FFF7C0FE0CE007DA05463B
:10203000FFF7BBFE31462846FFF7B9FE03E04FF439
:102040004051FFF7B2FE002C00DA6442A1B2BDE8B5
:102050007040024800F05ABF000C0140002C0140C3
:102060007047000070B50F23C27801260178002A5E
:102070001ED0144A126802F4E062C2F5E062120A4D
:10208000C2F10404D3404578A54082781A402A431F
:10209000120101F1E02181F80024007800F01F0115
:1020A0008E404009800000F1E020C0F8006170BD62
:1020B00001F01F0086404809800000F1E020C0F8D0
:1020C000806170BD0CED00E00249084302490860E0
:1020D000704700000000FA050CED00E010B500218B
:1020E000074C0022002004EBC1131A54401CC0B25C
:1020F0008028FAD3491CC9B20829F3D310BD0000C7
:10210000500000202DE9F041CF1823E00446861846
:102110001CE07F2C18D8002916DB3F2914DCCB17D4
:1021200001EB5373DD104FEAC51C0C4D23F0070380
:102130006544A1EB030815F804C0012303FA08F372
:102140002CEA030C05F804C0641C24B2A642E0DCAF
:10215000491C09B28F42D9DCBDE8F0815000002053
:1021600038B500214FF47A720020401C9042FCD315
:10217000491C9142F8D30121082000F093FA142061
:102180008DF8030003208DF802004FF48070ADF845
:102190000000094C69462046FFF77EFD6115ADF849
:1021A000001069462046FFF777FD012000F024FA71
:1021B000012000F029FA38BD000C014070B5054639
:1021C0000024802626FA04F0284000D0012000F0E8
:1021D0001BFA012000F010FA002000F00DFA641C38
:1021E000E4B2082CEED3012000F006FABDE87040FE
:1021F000002000F001BA10B5012000F005FA01201E
:1022000000F0FAF9002000F0FFF9BDE810400020CE
:1022100000F0F2B910B5002000F0F6F9012000F04E
:10222000EBF9BDE81040012000F0EEB910B5FFF762
:1022300097FFAE2000F0F0F9D52000F0EDF98020F6
:1022400000F0EAF9A82000F0E7F93F2000F0E4F9F7
:10225000D32000F0E1F9002000F0DEF9402000F08A
:10226000DBF9A12000F0D8F9C82000F0D5F9DA2078
:1022700000F0D2F9122000F0CFF9812000F0CCF963
:10228000CF2000F0C9F9D92000F0C6F9F12000F004
:10229000C3F9DB2000F0C0F9302000F0BDF9A42024
:1022A00000F0BAF9A62000F0B7F98D2000F0B4F9DB
:1022B000142000F0B1F9AF2000F0AEF9FFF70EFFE7
:1022C000BDE8104000F084B90FB470B5C0B0054649
:1022D0000E46144648AA68464799FDF7CBFF2346A9
:1022E0006A463146284600F08DF840B070BC5DF873
:1022F00014FB10B50C4640F0B00000F08DF9102032
:1023000040EA141000F088F904F00F00BDE8104016
:1023100000F082B908B5203A082B0CD0062B09D161
:10232000094B02EB420203EB420200920823062211
:1023300000F00EF808BD054B03EB021200921023CB
:10234000082200F005F808BD68420008783C000843
:102350002DE9FF4F0F46DDF8349090461D460024CE
:102360002B46424639460098FFF7CCFE6D1EE81713
:1023700005EB50700121DFF888C001EBE00A3BE07B
:10238000002035E000990D187F2D2FD8F91707EBA5
:102390005171CA1016B221F007017B1A002F03DA1F
:1023A000761E36B208331BB2311907290DD804FB4B
:1023B00008FB09EB000E0CEBC1121BF80EB0565DCA
:1023C0000BFA03FB46EA0B065655491C07290DD8A4
:1023D00004FB08F609EB000B0CEBC11116F80B60BF
:1023E0004A5DC3F10803DE4032434A55401CC0B287
:1023F0004045C7D3641CE4B2A245C1DCBDE8FF8FF1
:10240000500000202DE9FF4F83B0804614469946C6
:1024100000250026AA46ADE0010609D40120294680
:102420006D1C615CADB28DF804108DF805A055E00F
:102430000621B1EB501F10D10220691C625D89B2E8
:102440008DF80420625C002A76D04A1C615C95B24B
:102450008DF805108DF806A040E00E21B1EB101F9D
:1024600018D10320691C625D89B28DF80420625C7A
:10247000002A61D04A1C615C92B28DF80510A15C03
:1024800000297BD0511C8DB2A15C8DF806108DF80F
:1024900007A023E01E21B1EBD00F23D10420691C3B
:1024A000625D89B28DF80420625C002A66D04A1C05
:1024B000615C92B28DF80510A15C00295ED0511CC0
:1024C000A25C89B28DF80620625C002A56D04A1CB4
:1024D000615C95B28DF807108DF808A0012804D032
:1024E000002716E06D1CADB244E008EB06009DF835
:1024F000042000B24B460499FFF70CFF06EB0900DD
:1025000086B237E0584601A9FDF7C6FE68B17F1CC8
:10251000BFB207EB870000EB47111A480844834617
:1025200019A1FDF7B9FE0028ECD1B9F1080F04D0CC
:10253000B9F1060F1ED113E020E007EB870000EB96
:102540004711104810230844401D009008EB060076
:1025500000B21A460499FFF7FBFE1036B6B209E046
:1025600008EB060000B206233F220499FFF7D2FED3
:10257000B61DB6B2605D00287FF44EAF07B0BDE86F
:10258000F08F0000A2440008000000002DE9FF4188
:10259000002331264FF0010C01AC30270CFA03F573
:1025A000154201D0E65400E0E7545B1C082BF5DB34
:1025B00000228DF80C2003A306220094FFF784FE6E
:1025C000BDE8FF81547261636B3A5B25735D000067
:1025D00070B50024074D00212046FFF78AFE05EB69
:1025E000C410802100F029F8641CE4B2082CF2D356
:1025F00070BD00005000002002464FF400710148F9
:10260000FFF7D7BB000C014002464FF48071014830
:10261000FFF7CFBB000C014010B50446FFF7EBFD00
:102620007820FFF7CBFD0020FFF7C8FD2046FFF71D
:10263000C5FDBDE81040FFF7EDBD70B505460E467F
:10264000FFF7D9FD7820FFF7B9FD4020FFF7B6FD71
:10265000002404E0285DFFF7B1FD641CE4B2B4423D
:10266000F8D3BDE87040FFF7D5BD000003490878F6
:10267000002801D000220A707047000044000020AA
:1026800000F0BABF70470000054A002903D0D169A5
:102690000143D1617047D1698143D1617047000026
:1026A00000100240054A002903D09169014391615D
:1026B00070479169814391617047000000100240AA
:1026C00010B5264A516801F00C01254B002927D08E
:1026D000042927D0082927D00360516801F0F001B0
:1026E0000909204B5C5C0168E1404160546804F4D6
:1026F000E064240A1C5D21FA04F48460546804F444
:102700006054E40A1B5DD940C160526802F4404243
:10271000920B144B1B1F9A5CB1FBF2F1016110BDCF
:102720000360DAE70360D8E7516801F47011536879
:1027300003F48033022404EB914133B153689B03CB
:1027400007D5094B59430160C7E7074B594301605F
:10275000C3E7034B59430160BFE70000001002408C
:1027600000127A000400002000093D00704700F0CC
:1027700001B800000CB500220192009227480168C0
:1027800041F4803101604FF4A063016801F400312D
:1027900000910199491C0191009911B9019999423F
:1027A000F3D10168890302D50121009100E0009274
:1027B0000099012930D11A490A6842F010020A60D2
:1027C0000A6822F003020A600A6842F002020A6004
:1027D0004168416041684160416841F48061416005
:1027E000416821F47C114160416841F4E811416085
:1027F000016841F08071016001688901FCD5416880
:1028000021F003014160416841F0020141604168EB
:10281000C1F381010229FAD10CBD00000010024071
:102820000020024010B50020FFF7C6FBBDE81040B5
:102830000020FFF7EBBB704710B50F48016841F06F
:102840000101016041680D4A1140416001680C4A74
:1028500011400160016821F480210160416821F488
:10286000FE0141604FF41F018160FFF780FF0549C1
:102870004FF00060086010BD001002400000FFF83B
:10288000FFFFF6FE08ED00E070B5048C24F00104B3
:102890000484058B048C25F0F3054FF6FF7606EAD9
:1028A000031313432B43104A90420ED00F4A904219
:1028B0000BD0B0F1804F08D00D4A904205D00D4AA0
:1028C000904202D00C4A904205D124F002020A4301
:1028D00042F0010104E024F00A020A4342F001013F
:1028E0000383018470BD0000002C014000340140CE
:1028F0000004004000080040000C0040F0B5048CCB
:1029000024F010040484068B048C4FF6FF7505EA4E
:10291000011726F4734605EA0333334305EA02221E
:102920001A43104B98420ED00F4B98420BD0B0F187
:10293000804F08D00D4B984205D00D4B984202D0E5
:102940000C4B984205D124F02001394341F010018D
:1029500004E024F0A0030B4343F010010283018440
:10296000F0BD0000002C0140003401400004004094
:1029700000080040000C0040F0B5048C24F4807482
:102980000484858B048C4FF6FF7707EA012625F037
:10299000F30507EA031313432B43104A90420ED06A
:1029A0000F4A90420BD0B0F1804F08D00D4A9042B0
:1029B00005D00D4A904202D00C4A904205D124F431
:1029C0000071314341F4807104E024F420620A4331
:1029D00042F4807183830184F0BD0000002C01402B
:1029E000003401400004004000080040000C00409A
:1029F000F0B5048C24F480540484868B048C4FF648
:102A0000FF7505EA013726F4734605EA02223243D0
:102A100005EA03331343104A90420ED00F4A904206
:102A20000BD0B0F1804F08D00D4A904205D00D4A2E
:102A3000904202D00C4A904205D124F4005139430F
:102A400041F4805104E024F402420A4342F48051EC
:102A500083830184F0BD0000002C0140003401405C
:102A60000004004000080040000C00402DE9F84F31
:102A7000DFF824920121484600F059F901287DD160
:102A8000FFF70CFA00F0FCFA074600F045FB009057
:102A900082498348FFF7D4F8FFF7E8FD8046814D6F
:102AA0004FF0000B8FB185F801B07F4C0121022659
:102AB00022783220DFF8F4A10A2A16D2DFE802F0E9
:102AC00009161E407C9CA7B7CCE16878401C687052
:102AD000EBE7FFF7A7FE85F801B085F800B0A8780E
:102AE000012802D1267085F80380CCE0B8F1000FF0
:102AF00002D0B8F1010FF8D12670C4E0009800F0C0
:102B000063FF6B4900F078FF00F042FF014601F1DE
:102B10001900C1F119043C2800DD3C206FF03B0195
:102B2000884200DA08463C2C00DD3C248C4200DA66
:102B30000C4600B2FFF740FA20B2FFF767FAA2E0B6
:102B4000FFF770FE288910B1401E28819BE0DFF856
:102B500064814FF480514046FFF720F9054620215B
:102B60004046FFF71BF9054340214046FFF716F9A1
:102B7000054380214046FFF711F900E089E0054355
:102B80000DD008215046FFF709F970B10025022148
:102B90005046FFF703F950B10020054273D1002FD2
:102BA00071D0FF2F05D026706DE00125EFE70120E1
:102BB000F3E70520207066E008215046FFF7EEF8A5
:102BC000074610215046FFF7E9F80740012150461B
:102BD000FFF7E4F8074002215046FFF7DFF807420D
:102BE00001D026704FE085F801B01E20FFF7E4F910
:102BF0001E20FFF70BFA46E0FF2F01D0267042E0BF
:102C00001E20FFF7D9F91E20FFF700FA3BE0687994
:102C1000421E6A7106D20020FFF7CEF91E20FFF790
:102C2000F5F930E0C82068712670E9712BE02A7848
:102C30000AB9A8712970A87948B12D20FFF7BCF90D
:102C40000020FFF7E3F9A879401EA8711BE0267069
:102C50002879401C287116E02A780AB9A8712970D1
:102C6000A87948B10020FFF7A7F92D20FFF7CEF98A
:102C7000A879401EA87106E026702879401C2871AA
:102C800001E0FFF7CFFD4846BDE8F84F012100F015
:102C900016B8BDE8F88F00000004004024000020B2
:102CA000200000204600002045000020000C0140CC
:102CB000CDCCCC3E00080140C94301827047C943D6
:102CC00001827047002904D0018841F00101018090
:102CD0007047018821F0010101807047002905D06B
:102CE00030F8441F41F400410180704730F8441F20
:102CF000C1F30E010180704770B50589048B068C05
:102D000025F007050D434FF6FC410C4040F2011140
:102D10000C4326F022064FF6FF7101EA031111431E
:102D2000314305810483018470BD808C7047024665
:102D30000020138A0B4092890A40002B02D0002AFF
:102D400000D001207047000070B505460C461D48B4
:102D5000854209D01C48854206D0B5F1804F03D08A
:102D60001A48854200D01A4820886188A2882389A1
:102D700060B1042813D008281AD02846FFF738FE7F
:102D8000E1882846BDE8704000F0E1B82846FFF72A
:102D90007BFDE1882846BDE8704000F0BCB82846BD
:102DA000FFF7ACFDE1882846BDE8704000F0BBB8F5
:102DB0002846FFF7E1FDE1882846BDE8704000F0B5
:102DC000BEB80000002C0140003401400004004067
:102DD0000008004000210180418001228280C180E2
:102DE00001817047002A03D082890A43828170479B
:102DF00082898A4382817047018921F0070101811C
:102E00007047000030B5028C22F001020284028C6F
:102E10008388048B24F0700424F003050C882C4371
:102E200022F002020D8915434A882A43124DA84216
:102E30000BD0124DA84208D0114DA84205D0114D1B
:102E4000A84202D0104DA8420FD122F008054A89AD
:102E50002A4322F004058A882A4323F4807323F44A
:102E600000738D891D43CB892B4383800483C988DC
:102E70008186028430BD0000002C014000340140F6
:102E800000400140004401400048014070B5028C00
:102E900022F480520284058C8288838B23F4E043E1
:102EA00023F440760C884FF6FF7303EA042434437E
:102EB00025F400550E8903EA06362E434D8803EAB1
:102EC00005353543094EB04202D0094EB04205D116
:102ED00022F480468A8903EA821232438280848304
:102EE000C988A0F84010058470BD0000002C014086
:102EF000003401400021018041808180C180018136
:102F000041818181C181704781867047A0F840105E
:102F1000704781847047028B22F00C020283028B7F
:102F20000A4302837047028B22F440620283028BC1
:102F30004FF6FF7303EA01210A4302837047828B35
:102F400022F00C028283828B0A4382837047828B39
:102F500022F440628283828B4FF6FF7303EA0121E1
:102F60000A4382837047000030B502881B4C1C4D19
:102F7000A0420DD0A8420BD0B0F1804F08D0194B21
:102F8000984205D0184B984202D0184B984203D172
:102F900022F070034A881A43154B984206D0154B0D
:102FA000984203D022F44073CA881A4302808A8868
:102FB00082850A880285A0420AD0A84208D00E4A1B
:102FC000904205D00D4A904202D00D4A904201D164
:102FD000097A01860121818230BD0000002C014068
:102FE000003401400004004000080040000C004094
:102FF0000010004000140040004001400044014027
:10300000004801401FB501210220FFF73DFB1B4C8A
:103010002046FFF7F1FE0021ADF80A10ADF80610CA
:1030200040F2E732ADF8082040F2CF20ADF80400BE
:103030008DF80C1001A92046FFF796FF01212046CC
:10304000FFF73AFE012211462046FFF7CBFE4FF470
:10305000A060FFF739F81D208DF8000001218DF8E0
:10306000031002208DF801008DF802106846FEF76B
:10307000F9FF01212046FFF725FE1FBD0004004097
:1030800070B50024214D08212846FEF787FE00B1C7
:10309000012410212846FEF781FE08B144F0020405
:1030A0001B4E4FF480513046FEF778FE08B144F0D5
:1030B000040420213046FEF771FE08B144F00804F4
:1030C00040213046FEF76AFE08B144F0100480212A
:1030D0003046FEF763FE08B144F020040121284683
:1030E000FEF75CFE08B144F0400402212846FEF7DA
:1030F00055FE08B144F0800406480078012801D04C
:10310000204670BDE043C0B270BD0000000C01401D
:10311000000801403C0000202DE9F041FFF7B0FF1E
:103120000C4DA0B10022002300210B4E012707FA0D
:1031300001F4044203D056F8214022445B1C491C90
:103140000829F4DB92FBF3F06860BDE8F081686861
:10315000FBE700003C000020504D000808B50121AD
:103160000D20FFF79FFA01210C48FEF7E9FD28200A
:103170008DF8030003208DF802004FF48750ADF85E
:10318000000069460648FEF787FD1B20ADF80000E9
:1031900069460448FEF780FD08BD000000023000CB
:1031A00000080140000C0140014908707047000010
:1031B0003C00002070B5104D40F2255421462846B1
:1031C00000F04CF8002815D0284600F0E1F8C0B215
:1031D0004C2807D0522805D0462803D0532801D0C8
:1031E000452801D10549087021462846BDE87040B0
:1031F00000F020B870BD00000044004044000020F2
:1032000070B50B4C40F225552946204600F026F8B3
:1032100001280BD1204600F0BBF8C0B200F0F4F852
:1032200029462046BDE8704000F004B870BD00009B
:103230000048004040F66A120A0A01219140C94341
:1032400001807047002904D0818941F400518181B7
:103250007047818921F400518181704770B5002445
:1032600040F66A12C1F3421301F01F05012606FA67
:1032700005F2012B0CD0022B0DD0838A1340090AD2
:103280008E40008830400BB100B10124204670BD53
:1032900083891340F3E7038A1340F0E710B540F643
:1032A0006A13C1F3421301F01F040121A140012B55
:1032B00007D0022B07D014303AB102680A430260EB
:1032C00010BD0C30F8E71030F6E702688A43026060
:1032D00010BD000030B585B004460D46208A4CF67E
:1032E000FF710840E98801432182A0894EF6F3115D
:1032F0000840A9882A8911436A8902431143A181A0
:10330000A08A4FF6FF410840A9890143A18268467F
:10331000FFF7D6F91D48844201D1039800E00298D6
:10332000A189090408D500EBC00101EB0010296850
:103330004900B0FBF1F007E000EBC00101EB001029
:1033400029688900B0FBF1F06422B0FBF2F10901B9
:103350000B096FF018056B4300EB8300A3891D0474
:103360004FF0320307D503EBC000B0FBF2F000F0E2
:103370000700084306E003EB0010B0FBF2F000F09A
:103380000F000843208105B030BD00000038014027
:103390008088C0F308007047FEE7490050EAC1206A
:1033A00018BF04204A0D18BF40F0010040F2FF7220
:1033B000B2EB515F08BF40F00200012808BF0520B2
:1033C000704730380A2801D201207047002070472A
:1033D00000B502464FF47A7302E0184600F004F894
:1033E000521E501CF9D100BD00EBC000C1004FF0CF
:1033F000E020416100218161052101610169C9036A
:10340000FCD50421016170472DE9F0410021314DC7
:103410002A78314C002A4AD02A780026012A4ED038
:103420002A78022A41D16A78531CDBB26B70A0540F
:103430000B2B3AD10020225C1144C9B2401CC0B20F
:103440000A28F8D3A07A88422DD1A078E17840EA02
:10345000012000B200F0B8FA6FF00E07394600F014
:10346000CDFBDFF87880414600F0C6FA686020792D
:10347000617940EA012000B200F0A6FA394600F076
:10348000BDFB414600F0B8FAA860A079E17940EAB6
:10349000012000B200F098FA394600F0AFFB414637
:1034A00000F0AAFAE8602E706E70BDE8F081552831
:1034B000FBD169786054012028706870F5E75328C3
:1034C00002D02E706E70F0E7697860540220287088
:1034D0006870EAE728000020500400200000344310
:1034E0001FB5FEF7A3FEFEF7BDFCFEF709FDFFF7D3
:1034F00089FDFEF73DFBFFF731FE0020FFF754FE8C
:103500004FF41654204600F0C9F82046FFF7B8F8EB
:10351000FEF7E4FD0021062322A20846FEF772FF13
:10352000062324A210210020FEF76CFFFFF750F8BD
:10353000234FDFF89080244EFFF7A2FD0446FFF7EB
:10354000EBFD8146002122460846FFF71FF8386848
:1035500000F02AF904460D46D8F8000000F024F9DE
:103560008DE8330019A3062210210020FEF7ACFEDF
:1035700030781AA3CDE90090062220210020FEF722
:10358000A3FE3078FEF71CFC009018A30622302121
:103590000020FEF799FEFFF71BF83220FFF718FF17
:1035A000CAE7000053797374656D205265616479D0
:1035B000000000005072657373204B657931000084
:1035C0002400002020000020450000204C3A252E39
:1035D000316620523A252E3166000000506F733A52
:1035E00025642053743A25640000000073746174EC
:1035F000653A25730000000070B586B004460121CD
:103600000420FFF74FF801214804FFF73DF8042597
:10361000ADF8145018208DF8170003208DF816000F
:103620001C4E05A93046FEF737FB0820ADF8140004
:103630008DF8175005A93046FEF72EFB01940020A7
:10364000ADF80800ADF80A00ADF80C00ADF81000B8
:103650000C20ADF80E00104C01A92046FFF73AFEF1
:10366000012240F225512046FFF718FE0121204695
:10367000FFF7E8FD26208DF8000001208DF80100FD
:103680008DF802008DF803006846FEF7EBFC06B0EB
:1036900070BD0000000801400044004030B587B014
:1036A000044601210820FEF7FDFF01218804FEF7F2
:1036B000EBFF4FF48060ADF8180018208DF81B0068
:1036C00003208DF81A001D4D06A92846FEF7E4FADE
:1036D000E814ADF8180004208DF81B0006A9284650
:1036E000FEF7DAFA02940024ADF80C40ADF80E4073
:1036F000ADF81040ADF814400C20ADF81200104D9C
:1037000002A92846FFF7E6FD012240F2255128468E
:10371000FFF7C4FD01212846FFF794FD27208DF80F
:1037200004008DF8054001208DF806008DF8070093
:1037300001A8FEF797FC07B030BD0000000C014067
:103740000048004010B500290AD00878002807D0AA
:1037500005487844FCF7A0FD002801D0002010BDEA
:103760000248784410BD00003A17000032170000EC
:1037700010B500290AD00878002807D005487844F9
:10378000FCF78AFD002801D0002010BD02487844D3
:1037900010BD00002A170000221700000808A0F53D
:1037A00000114FEA3101704743004FEAD30C4FEA52
:1037B0003C0C43401FBF40070CF1605113F0FE4F1B
:1037C00070471CF0006F03D100200CF000417047DF
:1037D0000CF0004343EA507010B540EACC0000F012
:1037E0008CF900BF000000924FEA0001FFF7D6BF3E
:1037F0004FF000414FF00000A1F50021704700009C
:10380000014800F0C9B900BF0000C07F4FF47F0C31
:103810001CEAD0121EBF1CEAD11392EA0C0F93EAE5
:103820000C0F00F0858090EA010F48BF42F48072CF
:1038300040F4000C41F400002CF07F4120F07F4068
:1038400000B58142A2EB03020FF2081CACEB504E14
:10385000C0F100009EF800E04FEA4E0E00FB0EFCA7
:1038600038BF49004FEA2C1C02F5FA020CFB0EF39C
:103870004FEACE1E4FEA112C4FEAC1210EEB635ED8
:1038800042EB22420EFB0CFC4FEA1C5300FB0311DF
:103890004FEA112C4FEA01310EFB0CFC4FEADC4CD5
:1038A00000FB0C11C14228BF09184CEB03335DF833
:1038B00004EB10EB410143EBC250B2F57C0F38BF73
:1038C000704729D512F0F00F1CBF00F1C04000F086
:1038D00000407047008182838485868788898B8C2D
:1038E0008D8E8F919293959697999A9C9D9FA0A269
:1038F000A3A5A7A8AAACAEB0B2B3B5B7B9BCBEC0B9
:10390000C2C5C7C9CCCED1D4D7D9DCDFE2E6E9EC59
:10391000F0F3F7FAFE0000004FEA400C0CF1807C57
:10392000BCF17E4F28BF7047B0F1C04000F02BB90A
:1039300090EA010F0CEAD11348BF42F4807262454D
:1039400038BF634507D213F47F0F16D080EA010019
:1039500000F00040704710B500F0CFF8097EFC3E43
:1039600000F005B880EA010000F00040704780EAEE
:10397000010000F0004000F006B912F47F0F04BF10
:103980000248704780EA010000F0FDB80000C07FE7
:1039900041000B0ED3F19E0208D950F400034FEA08
:1039A000032323FA02F048BF4042704710B500F0ED
:1039B000A4F800BF49922480002070476FF00042B5
:1039C00082EA20007047000010F0004148BF4042EA
:1039D000B0FA80F310FA03F2C3F19D030BD051EA61
:1039E000C35101EB1220530638BF704700F10100AC
:1039F00008BF20F0010070474FF47F0C1CEAD01282
:103A00001EBF1CEAD11392EA0C0F93EA0C0F00F0D0
:103A1000478090EA010F48BF42F480724FF0004C9B
:103A20004CEA00204CEA012102EB0302A0FB011347
:103A3000A2F50002002918BF43F001035B0028BF74
:103A40004FEA330342EB22425FEA132C4CEBC250A5
:103A50002EBFBCEB436FB2F57C0F70474FEA036C8F
:103A6000BCF1004F08BF20F00100B2F57C0F38BF59
:103A700070470BD582F0FF0212F5803FC8BF704738
:103A800000F1C040D8BF00F00040704700F5000CC6
:103A90005FEA4C0C48BF7047B0F1C04000F073B80B
:103AA00090EA010F0CEAD11348BF42F480726245DC
:103AB00038BF634504D280EA010000F0004070473F
:103AC00010B500F01AF800BF8900013E00F007B8F9
:103AD00000F009B85FEA410C5FEA1C6C08D080EA8C
:103AE000010000F050B85FEA400C5FEA1C6CF6D1B0
:103AF0004FF00040A0F5800070470EF1020E2EF04E
:103B0000030E5EF8044B244204D44FEA4102B2F1A2
:103B10007F4F11D84FEA4003B3F17F4F0CD80ED13D
:103B20004FEAD07CB2F17F4F0CEB4C0C0CF1020C45
:103B300008BF4CEBD17C04E04FF0080C01E04FEAE9
:103B4000D17C0CEB4C0324FA03F404F00704B4F129
:103B5000040C06D20EEB840CBDE810404CF0010CB6
:103B60006047DFE80CF0070802024FF00040A0F5C4
:103B7000800010BD0846420018BFD2F1807288BF95
:103B800000F0004010BDFF2141EAD050C005704751
:103B9000FCF7EFBFFDF724B90CF00F03092B08BFAA
:103BA000082000F051800A2B0BD0082B18BF70475B
:103BB00008BF1CF0400F0AD04FF000004FF000018A
:103BC00070471CF0400F18BF4FF0004070471CF0CA
:103BD000100F08D020F0704300F07F4242EAD3017A
:103BE0004FEA4370704700F0604021F07F4242EAA4
:103BF000000201F07F4040EA727070474FF0FF0210
:103C000012EAD0521CBF92F0FF038B42C2BFD142D6
:103C100000EBC1507047002A0AD0002B0BD00029BE
:103C200000F00040A4BF40F0FE4040F400007047A8
:103C300000F00040704743024FF00B0C18BF4CF0EF
:103C4000806C7FF4DDAD70471CF4801F11D01CF434
:103C5000E02F03D06FEACC31490070474FF040505D
:103C6000EFF3008222F0704242EA000282F3008801
:103C700070474FF000007047000000000000000097
:103C80000000000000000000000000F8000000003C
:103C9000000000333000000000160E00160E000079
:103CA000000000000000000040C07840C0784000E4
:103CB000043F04043F040400007088FC0830000046
:103CC000001820FF211E0000F008F000E01800009E
:103CD00000211C031E211E0000F008887000000057
:103CE0001E21232419272110000000160E000000B9
:103CF0000000000000000000000000E018040200C6
:103D0000000000071820400000020418E000000036
:103D10000040201807000000404080F08040400034
:103D20000202010F01020200000000F0000000008A
:103D30000101011F0101010000000000000000005E
:103D400000B0700000000000000000000000000053
:103D5000000101010101010100000000000000005C
:103D600000303000000000000000000080601804F7
:103D7000006018060100000000E010080810E000D4
:103D8000000F102020100F00001010F8000000009D
:103D90000020203F202000000070080808887000E4
:103DA0000030282422213000003008888848300064
:103DB0000018202020110E000000C02010F8000084
:103DC00000070424243F240000F80888880808001D
:103DD0000019212020110E0000E010888818000032
:103DE000000F112020110E0000380808C838080004
:103DF0000000003F00000000007088080888700084
:103E0000001C222121221C0000E010080810E00004
:103E10000000312222110F00000000C0C00000008D
:103E20000000003030000000000000C0C0000000B2
:103E3000000080B0700000000000804020100800EA
:103E40000001020408102000404040404040400073
:103E5000040404040404040000081020408000004E
:103E60000020100804020100007048080808F00053
:103E70000000003036010000C030C828E810E00023
:103E80000718272423140B000000C038E0000000AE
:103E9000203C23020227382008F888888870000018
:103EA000203F202020110E00C030080808083800EC
:103EB000071820202010080008F808080810E00063
:103EC000203F202020100F0008F88888E808100004
:103ED000203F20202320180008F88888E8081000D8
:103EE000203F200003000000C03008080838000010
:103EF00007182020221E020008F808000008F80811
:103F0000203F210101213F20000808F80808000097
:103F10000020203F2020000000000808F8080800CA
:103F2000C08080807F00000008F888C02818080042
:103F3000203F20012638200008F80800000000007B
:103F4000203F20202020300008F8F800F8F8080072
:103F5000203F003F003F200008F830C00008F8086C
:103F6000203F200007183F00E01008080810E0007C
:103F70000F10202020100F0008F808080808F00093
:103F8000203F210101010000E01008080810E000B6
:103F90000F18242438504F0008F88888888870004B
:103FA000203F2000030C30200070880808083800EB
:103FB0000038202121221C00180808F808081800E1
:103FC0000000203F2000000008F808000008F80862
:103FD000001F202020201F000878880000C8380813
:103FE000000007380E010000F80800F80008F8008B
:103FF000033C0700073C0300081868808068180825
:1040000020302C03032C30200838C800C8380800A2
:104010000000203F2000000010080808C8380800F1
:104020002038262120201800000000FE0202020095
:104030000000007F40404000000C30C00000000045
:10404000000000010638C00000020202FE0000006D
:10405000004040407F0000000020100804081020AD
:104060000000000000000000000000000000000050
:104070008080808080808080000204080000000032
:104080000000000000000000000080808080000030
:104090000019242222223F2008F80080800000001E
:1040A000003F112020110E000000008080800000E1
:1040B000000E112020201100000000808088F800F0
:1040C000000E112020103F20000080808080000022
:1040D000001F222222221300008080F08888881886
:1040E0000020203F20200000000080808080800091
:1040F000006B94949493600008F800808080000026
:10410000203F210000203F20008098980000000000
:104110000020203F20200000000000809898000030
:1041200000C08080807F000008F800008080800050
:10413000203F24022D302000000808F80000000075
:104140000020203F20200000808080808080800030
:10415000203F20003F20003F008080008080000042
:1041600000203F2100203F20000080808080000050
:10417000001F202020201F00808000808000000081
:1041800080FFA12020110E000000008080808000B0
:10419000000E112020A0FF808080800080808000A1
:1041A00020203F21200001000000808080808000CE
:1041B0000033242424241900008080E08080000043
:1041C0000000001F20200000808000000080800090
:1041D000001F202020103F208080800000808080F1
:1041E00000010E3008060100808000800080808081
:1041F0000F300C030C300F000080800080808000A6
:104200000020312E0E3120008080800000808080D0
:1042100080818E7018060100008080808080800080
:104220000021302C2221300000000000807C02029E
:1042300000000000003F404000000000FF000000C0
:1042400000000000FF0000000002027C800000006F
:104250000040403F0000000000804040800000809F
:10426000000000000001010000000000000000004C
:10427000002F000000000700070000147F147F14C7
:1042800000242A7F2A12002313086462003649554D
:10429000225000000007000000001C224100000026
:1042A00041221C000014083E08140008083E0808BB
:1042B000000000A060000008080808080000606016
:1042C0000000002010080402003E5149453E000055
:1042D000427F4000004261514946002141454B3137
:1042E000001814127F10002745454539003C4A4903
:1042F0004930000171090503003649494936000675
:104300004949291E000036360000000056360000DC
:104310000008142241000014141414140000412257
:104320001408000201510906003E4955592E007C2F
:104330001211127C007F49494936003E4141412219
:10434000007F4141221C007F49494941007F090902
:104350000901003E4149497A007F0808087F0000B2
:10436000417F4100002040413F01007F081422416D
:10437000007F40404040007F020C027F007F040825
:10438000107F003E4141413E007F09090906003E81
:104390004151215E007F09192946004649494931AA
:1043A0000001017F0101003F4040403F001F2040CD
:1043B000201F003F4038403F00631408146300078B
:1043C0000870080700615149454300007F414100E2
:1043D000000204081020000041417F000004020197
:1043E0000204004040404040000001020400002060
:1043F00054545478007F484444380038444444209E
:1044000000384444487F00385454541800087E094A
:1044100001020018A4A4A47C007F08040478000012
:10442000447D4000004080847D00007F10284400CF
:104430000000417F4000007C04180478007C0804E0
:10444000047800384444443800FC2424241800181C
:10445000242418FC007C0804040800485454542008
:1044600000043F444020003C4040207C001C204091
:10447000201C003C4030403C004428102844001CD4
:10448000A0A0A07C004464544C440000087F41007C
:104490000000007F00000000417F080000080408C1
:1044A0001008E6B19F00001060020CC00404040470
:1044B000FC04040404000004047C032020202020C9
:1044C0003F202020202000E58D8F00001010FF10DD
:1044D00010009010FF1010F0800000000000FF009E
:1044E000048241300F40807F00010600E7A7910061
:1044F000002424A4FEA3220022CC0000FF00000020
:1045000000080601FF00010404040404FF02020283
:1045100000E68A800000101010FF1090088888883C
:10452000FF88888808000444827F01808040432CF3
:10453000102846818000E5B9B30000000202126233
:104540000202FE02024232020200000101010101E8
:104550000101FF0101010101010100E8A1A1000029
:104560001088C42308F493F29AF6004044C444002F
:104570000100FF001097543F54971040807F0000C7
:10458000E8BDA600000008884828180FE8080808B9
:10459000080808000008080909090909FF090909AC
:1045A0000909080800E6B58B00001060028C00FEC7
:1045B00002F202FE00F800FF000004047E018047C2
:1045C000300F10270047807F0000E8AF95000040C3
:1045D0004042CC009090909090FF10111610000077
:1045E00000003F1028603F1010010E3040F000E73F
:1045F000A88B00002424A4FE2322003E2222222293
:10460000223E0000080601FF0106404949497F4952
:1046100049494100E5BA8F00000000FC040404147D
:1046200015569454341404040040300F0001010165
:1046300041817F010101050300E68F900000101009
:1046400010FF109000FE9292929292FE000004449D
:10465000827F0180423A4282FE9292928200E7A4D7
:10466000BA000040404242424242C24242424242BA
:10467000404000201008060040807F000000020437
:10468000083000E5B7B200000000E2828282828238
:10469000828282FE0000000000003F404040404017
:1046A0004040404040780000E9878D000010101421
:1046B000D4545454FC525252D31210100040405063
:1046C000575555557F5555555750404000E7BDAE9D
:1046D0000000001715D55557557D555755D5151759
:1046E00000004040407F555555555555557F404039
:1046F0004000E58F820000002020A86C2A3928A8FD
:104700002A6CA82020000002828190924A49452408
:1047100022100801020200E695B000009052341009
:10472000FF10345280708F0808F80800829A566390
:1047300022528E008040330C33408000E8AFB70037
:10474000004042CC0000445454547F5454544440DC
:104750000000007F201000FF15151555957F000003
:1047600000E6B3A800001060028C0008080809FAEF
:1047700008080808000004047E0140404141417FD0
:10478000414141414000E6848F0000101012D25692
:104790005A5253525A56D2121010004030007785A8
:1047A000858DB5858585E700106000E689A7000046
:1047B000101010FF1090001010FF1010F0000000FB
:1047C0000444827F018040211A0718003F40F00016
:1047D000E8A18C0000001088C4330040424242C26D
:1047E0004242424000020100FF0000000040807F82
:1047F0000000000000E6A0A100001010D0FF901003
:10480000804828090E0828488800040300FF00019A
:104810008080432C102C43808000E58786000000B8
:10482000020CE04020F84F4849FE48484808000480
:10483000047F000000FF2222223F2222222000EFDC
:10484000BC9A000000000000000000000000000012
:1048500000000000000036360000000000000000EC
:1048600000000000E8B08300004042CC0000FE825F
:104870009292FE929282FE000000003F10887F001C
:104880001E1212125E807F0000E8AF9500004040CB
:1048900042CC009090909090FF10111610000000F4
:1048A000003F1028603F1010010E3040F000E6A8D5
:1048B000A100001010D0FF9014E4AFA4A4A4AFE4B2
:1048C000040000040300FF00894B2A1A0E1A2A4B29
:1048D000888000E5BC8F00001010909090909010A0
:1048E00010FF101011161000002060203F10101053
:1048F00000030C102040F800E7A1AC00000484E4A1
:104900005C44C400F29292FE9292F2020002017F95
:1049100010103F808F54245F4484878000E4BBB62E
:104920000000008060F80780601C1010FF1010105D
:104930000000010000FF000202020202FF02020268
:104940000200E4BCA00000008060F807404848E88E
:104950005F484848404000010000FF0000020B1281
:1049600022D20A06000000E6849F00000000FC043A
:10497000D4545454D4047F84C5360400886601009E
:1049800063828292AB8482C10224CF00E599A800A1
:104990000080809E9292929EE0809EB2D2929E80F3
:1049A000000808F4949292F10001F2929494F808AD
:1049B00000E4BF9D0000008060F807003E2222E274
:1049C00022223E000000010000FF2011090503FF24
:1049D000030509112000E68C810000101010FF1063
:1049E00010404848487F48C84840000444827F013E
:1049F0000002020A1242827F020200E7AB96000028
:104A000000FE0000FF00868A5222524A8680000083
:104A10004040444455644546446454444440400046
:104A2000E79BB40000000404F49494949F9494943D
:104A3000F4040400004040407F4A4A4A4A4A4A4A35
:104A40007F40404000E4B8940000000000FE2222B5
:104A50002222222222FE000000004040407F4242EB
:104A600042424242427F40404000E99D990000445A
:104A700054547F545444202827E4342CE000000090
:104A8000FF1555957F000949897F09091F0100E637
:104A9000ADA20000000000F0000000FF40404040D8
:104AA000400000004040407F4040407F4040404048
:104AB00040404000E58D9500000000F8494A4C4810
:104AC000F8484C4A49F80000001010131212121254
:104AD000FF1212121213101000E587BB0000808035
:104AE0008888888888FF8888888888808000000077
:104AF0007C404040407F40404040FC000000E99442
:104B0000AE00004030EF242480E49C105454FF5445
:104B10007C100001017F21512618274445455F453F
:104B2000454400E7A1AE00000484E45C44C42010C6
:104B3000E82724E4342CE00002017F10103F80605D
:104B40001F09093F49897F00E8AEA40000404042A8
:104B5000CC0000000000FF0000000000000000008A
:104B60003F904820180700071820408000E5AE8CD1
:104B70000000100C042424242526242424240414B6
:104B80000C0000818141310F0101017F818181F1A0
:104B90000000E6889000000000F8888888880808EF
:104BA000FF08090AC8080080601F0010201F80400D
:104BB0002116182641F800E7BC9600002030AC63AF
:104BC0003000FC2425262424243C000022672212E5
:104BD000523807FF097F093F89FF0000E7A08100E5
:104BE000000484E45C44C40002F2828282FE80807D
:104BF0000002017F10103F00080808084888403F65
:104C000000E794B500000000F888888888FF88884D
:104C10008888F800000000001F080808087F8888BE
:104C200088889F80F000E69CBA00001010D0FF90AA
:104C30001000FE020202FE00000000040300FF005C
:104C400083601F0000003F40407800E4B8B20000DD
:104C500000003C24242424FF242424243C000000BD
:104C6000001F0909090909FF09090909091F0000AD
:104C7000E58FA300000000FC040404040404040401
:104C800004FC00000000007F2020202020202020A5
:104C9000207F000000E995BF000080808080FF80B9
:104CA00080A0908884828080800000000000FF4007
:104CB00021120408102020404000E68C89000010DA
:104CC0001010FF9020988888E98E8888A8980002A4
:104CD00042817F000080844B28102847800000E834
:104CE000BF940000404042CC0000FC24A4242222B7
:104CF000A36200000040201F20584750484542450D
:104D000048504000E59B9E00000000FE0202F212A7
:104D10001212F20202FE00000000007F2020272471
:104D200024242720207F0000000000000000FF0155
:104D300001013109090909897101010101FFFF80A0
:104D400080808080809681808080808080FF0000CD
:104D5000B0FFFFFFC9FFFFFFE7FFFFFFFBFFFFFF04
:104D6000050000001900000037000000500000009E
:104D70000000000000000000303132333435363797
:104D8000383941424344454640305800303132338F
:104D9000343536373839616263646566403078008F
:104DA00004000008000000000000000200010000F4
:104DB00010303132333435363738396162636465E7
:104DC0006678700030313233343536373839414205
:104DD000434445465850000002400000000000A037
:104DE0000000000005400000000000C800000000B6
:104DF0000C4000000000409C000000001940000032
:104E00000020BCBE0000000034400000BFC91B8E63
:104E100000000004B5400000504BCFD06607E2CF41
:104E2000010000006C4100003E8251AADFEEA73471
:104E300001000000D9420000DCB5A0E23A301F9723
:104E4000FFFFFFFFB4450000FD25A0C8E9A3C14F47
:104E5000FFFFFFFFFF3F0000000000800000000098
:104E6000FF3F00000000008000000000B84F000875
:104E70000000002050000000280100080850000831
:104E800050000020700A0000440100081C000000CF
:104E900043000000F8FFFFFF0C0000000E000000C0
:104EA0000F0000002E000000100100004300000071
:104EB000F8FFFFFF0040404040404040404041413B
:104EC00041414140404040404040404040404040DF
:104ED0004040404040050202020202020202020279
:104EE0000202020202202020202020202020200276
:104EF0000202020202029090909090901010101006
:104F000010101010101010101010101010101010A1
:104F10000202020202028888888888880808080835
:104F20000808080808080808080808080808080801
:104F30000202020240000000000000000000000029
:104F40000000000000000000000000000000000061
:104F50000000000000000000000000000000000051
:104F60000000000000000000000000000000000041
:104F70000000000000000000000000000000000031
:104F80000000000000000000000000000000000021
:104F90000000000000000000000000000000000011
:104FA0000000000000000000000000000000000001
:104FB00000000000000000000204060800000000DD
:104FC00001020304010203040607080900000000AF
:104FD00000000000000000000000000000000000D1
:104FE00000000000000000000000000000000000C1
:104FF00000000000000000000000000000000000B1
:08500000000100C832000000AD
:04000005080000ED02
:00000001FF
